{
  "contractName": "Voting",
  "abi": [
    {
      "constant": true,
      "inputs": [
        {
          "name": "",
          "type": "bytes32"
        }
      ],
      "name": "votesReceived",
      "outputs": [
        {
          "name": "",
          "type": "uint8"
        }
      ],
      "payable": false,
      "stateMutability": "view",
      "type": "function"
    },
    {
      "constant": true,
      "inputs": [
        {
          "name": "",
          "type": "uint256"
        }
      ],
      "name": "candidateList",
      "outputs": [
        {
          "name": "",
          "type": "bytes32"
        }
      ],
      "payable": false,
      "stateMutability": "view",
      "type": "function"
    },
    {
      "inputs": [
        {
          "name": "candidateNames",
          "type": "bytes32[]"
        }
      ],
      "payable": false,
      "stateMutability": "nonpayable",
      "type": "constructor"
    },
    {
      "constant": true,
      "inputs": [
        {
          "name": "candidate",
          "type": "bytes32"
        }
      ],
      "name": "totalVotesFor",
      "outputs": [
        {
          "name": "",
          "type": "uint8"
        }
      ],
      "payable": false,
      "stateMutability": "view",
      "type": "function"
    },
    {
      "constant": false,
      "inputs": [
        {
          "name": "candidate",
          "type": "bytes32"
        }
      ],
      "name": "voteForCandidate",
      "outputs": [],
      "payable": false,
      "stateMutability": "nonpayable",
      "type": "function"
    },
    {
      "constant": true,
      "inputs": [
        {
          "name": "candidate",
          "type": "bytes32"
        }
      ],
      "name": "validCandidate",
      "outputs": [
        {
          "name": "",
          "type": "bool"
        }
      ],
      "payable": false,
      "stateMutability": "view",
      "type": "function"
    }
  ],
  "bytecode": "0x608060405234801561001057600080fd5b50604051610412380380610412833981018060405281019080805182019291905050508060019080519060200190610049929190610050565b50506100c8565b828054828255906000526020600020908101928215610092579160200282015b82811115610091578251829060001916905591602001919060010190610070565b5b50905061009f91906100a3565b5090565b6100c591905b808211156100c15760008160009055506001016100a9565b5090565b90565b61033b806100d76000396000f30060806040526004361061006d576000357c0100000000000000000000000000000000000000000000000000000000900463ffffffff1680632f265cf714610072578063392e6678146100bd5780637021939f14610106578063b13c744b14610151578063cc9ab2671461019a575b600080fd5b34801561007e57600080fd5b506100a160048036038101908080356000191690602001909291905050506101cb565b604051808260ff1660ff16815260200191505060405180910390f35b3480156100c957600080fd5b506100ec6004803603810190808035600019169060200190929190505050610210565b604051808215151515815260200191505060405180910390f35b34801561011257600080fd5b50610135600480360381019080803560001916906020019092919050505061026f565b604051808260ff1660ff16815260200191505060405180910390f35b34801561015d57600080fd5b5061017c6004803603810190808035906020019092919050505061028f565b60405180826000191660001916815260200191505060405180910390f35b3480156101a657600080fd5b506101c960048036038101908080356000191690602001909291905050506102b2565b005b60006101d682610210565b15156101e157600080fd5b600080836000191660001916815260200190815260200160002060009054906101000a900460ff169050919050565b600080600090505b60018054905081101561026457826000191660018281548110151561023957fe5b90600052602060002001546000191614156102575760019150610269565b8080600101915050610218565b600091505b50919050565b60006020528060005260406000206000915054906101000a900460ff1681565b60018181548110151561029e57fe5b906000526020600020016000915090505481565b6102bb81610210565b15156102c657600080fd5b6001600080836000191660001916815260200190815260200160002060008282829054906101000a900460ff160192506101000a81548160ff021916908360ff160217905550505600a165627a7a7230582075032c62195276f542d0be85a40660040d285c591e91e10454e02a8b7b37ceab0029",
  "source": "pragma solidity ^0.4.22;\n\ncontract Voting {\n  mapping (bytes32 => uint8) public votesReceived;\n\n  /* Solidity doesn't let you pass in an array of strings in the constructor (yet).\n  We will use an array of bytes32 instead to store the list of candidates\n  */\n\n  bytes32[] public candidateList;\n\n  constructor(bytes32[] candidateNames) public {\n    candidateList = candidateNames;\n  }\n\n\n  function totalVotesFor(bytes32 candidate) view public returns (uint8) {\n    require(validCandidate(candidate));\n    return votesReceived[candidate];\n  }\n\n  function voteForCandidate(bytes32 candidate) public {\n    require(validCandidate(candidate));\n    votesReceived[candidate] += 1;\n  }\n\n  function validCandidate(bytes32 candidate) view public returns (bool) {\n    for(uint i = 0; i < candidateList.length; i++) {\n      if (candidateList[i] == candidate) {\n        return true;\n      }\n    }\n    return false;\n  }\n}\n",
  "sourcePath": "/Users/Emmett/course/以太坊DAPP开发实战/code/Voting/contracts/Voting.sol",
  "compiler": {
    "name": "solc",
    "version": "0.4.24+commit.e67f0147.Emscripten.clang"
  },
  "schemaVersion": "2.0.1",
  "updatedAt": "2018-09-17T03:35:20.194Z"
}